{
  "_format": "hh-sol-artifact-1",
  "contractName": "MinimalForwarder",
  "sourceName": "contracts/MinimalForwarder.sol",
  "abi": [
    {
      "inputs": [],
      "stateMutability": "nonpayable",
      "type": "constructor"
    },
    {
      "anonymous": false,
      "inputs": [
        {
          "indexed": true,
          "internalType": "bytes32",
          "name": "role",
          "type": "bytes32"
        },
        {
          "indexed": true,
          "internalType": "bytes32",
          "name": "previousAdminRole",
          "type": "bytes32"
        },
        {
          "indexed": true,
          "internalType": "bytes32",
          "name": "newAdminRole",
          "type": "bytes32"
        }
      ],
      "name": "RoleAdminChanged",
      "type": "event"
    },
    {
      "anonymous": false,
      "inputs": [
        {
          "indexed": true,
          "internalType": "bytes32",
          "name": "role",
          "type": "bytes32"
        },
        {
          "indexed": true,
          "internalType": "address",
          "name": "account",
          "type": "address"
        },
        {
          "indexed": true,
          "internalType": "address",
          "name": "sender",
          "type": "address"
        }
      ],
      "name": "RoleGranted",
      "type": "event"
    },
    {
      "anonymous": false,
      "inputs": [
        {
          "indexed": true,
          "internalType": "bytes32",
          "name": "role",
          "type": "bytes32"
        },
        {
          "indexed": true,
          "internalType": "address",
          "name": "account",
          "type": "address"
        },
        {
          "indexed": true,
          "internalType": "address",
          "name": "sender",
          "type": "address"
        }
      ],
      "name": "RoleRevoked",
      "type": "event"
    },
    {
      "inputs": [],
      "name": "DEFAULT_ADMIN_ROLE",
      "outputs": [
        {
          "internalType": "bytes32",
          "name": "",
          "type": "bytes32"
        }
      ],
      "stateMutability": "view",
      "type": "function"
    },
    {
      "inputs": [],
      "name": "RELAYER",
      "outputs": [
        {
          "internalType": "bytes32",
          "name": "",
          "type": "bytes32"
        }
      ],
      "stateMutability": "view",
      "type": "function"
    },
    {
      "inputs": [
        {
          "components": [
            {
              "internalType": "address",
              "name": "from",
              "type": "address"
            },
            {
              "internalType": "address",
              "name": "to",
              "type": "address"
            },
            {
              "internalType": "uint256",
              "name": "value",
              "type": "uint256"
            },
            {
              "internalType": "uint256",
              "name": "gas",
              "type": "uint256"
            },
            {
              "internalType": "uint256",
              "name": "nonce",
              "type": "uint256"
            },
            {
              "internalType": "bytes",
              "name": "data",
              "type": "bytes"
            }
          ],
          "internalType": "struct MinimalForwarder.ForwardRequest",
          "name": "req",
          "type": "tuple"
        },
        {
          "internalType": "bytes",
          "name": "signature",
          "type": "bytes"
        }
      ],
      "name": "execute",
      "outputs": [
        {
          "internalType": "bool",
          "name": "",
          "type": "bool"
        },
        {
          "internalType": "bytes",
          "name": "",
          "type": "bytes"
        }
      ],
      "stateMutability": "payable",
      "type": "function"
    },
    {
      "inputs": [
        {
          "internalType": "address",
          "name": "from",
          "type": "address"
        }
      ],
      "name": "getNonce",
      "outputs": [
        {
          "internalType": "uint256",
          "name": "",
          "type": "uint256"
        }
      ],
      "stateMutability": "view",
      "type": "function"
    },
    {
      "inputs": [
        {
          "internalType": "bytes32",
          "name": "role",
          "type": "bytes32"
        }
      ],
      "name": "getRoleAdmin",
      "outputs": [
        {
          "internalType": "bytes32",
          "name": "",
          "type": "bytes32"
        }
      ],
      "stateMutability": "view",
      "type": "function"
    },
    {
      "inputs": [
        {
          "internalType": "bytes32",
          "name": "role",
          "type": "bytes32"
        },
        {
          "internalType": "address",
          "name": "account",
          "type": "address"
        }
      ],
      "name": "grantRole",
      "outputs": [],
      "stateMutability": "nonpayable",
      "type": "function"
    },
    {
      "inputs": [
        {
          "internalType": "bytes32",
          "name": "role",
          "type": "bytes32"
        },
        {
          "internalType": "address",
          "name": "account",
          "type": "address"
        }
      ],
      "name": "hasRole",
      "outputs": [
        {
          "internalType": "bool",
          "name": "",
          "type": "bool"
        }
      ],
      "stateMutability": "view",
      "type": "function"
    },
    {
      "inputs": [
        {
          "internalType": "bytes32",
          "name": "role",
          "type": "bytes32"
        },
        {
          "internalType": "address",
          "name": "account",
          "type": "address"
        }
      ],
      "name": "renounceRole",
      "outputs": [],
      "stateMutability": "nonpayable",
      "type": "function"
    },
    {
      "inputs": [
        {
          "internalType": "bytes32",
          "name": "role",
          "type": "bytes32"
        },
        {
          "internalType": "address",
          "name": "account",
          "type": "address"
        }
      ],
      "name": "revokeRole",
      "outputs": [],
      "stateMutability": "nonpayable",
      "type": "function"
    },
    {
      "inputs": [
        {
          "internalType": "bytes4",
          "name": "interfaceId",
          "type": "bytes4"
        }
      ],
      "name": "supportsInterface",
      "outputs": [
        {
          "internalType": "bool",
          "name": "",
          "type": "bool"
        }
      ],
      "stateMutability": "view",
      "type": "function"
    },
    {
      "inputs": [
        {
          "components": [
            {
              "internalType": "address",
              "name": "from",
              "type": "address"
            },
            {
              "internalType": "address",
              "name": "to",
              "type": "address"
            },
            {
              "internalType": "uint256",
              "name": "value",
              "type": "uint256"
            },
            {
              "internalType": "uint256",
              "name": "gas",
              "type": "uint256"
            },
            {
              "internalType": "uint256",
              "name": "nonce",
              "type": "uint256"
            },
            {
              "internalType": "bytes",
              "name": "data",
              "type": "bytes"
            }
          ],
          "internalType": "struct MinimalForwarder.ForwardRequest",
          "name": "req",
          "type": "tuple"
        },
        {
          "internalType": "bytes",
          "name": "signature",
          "type": "bytes"
        }
      ],
      "name": "verify",
      "outputs": [
        {
          "internalType": "bool",
          "name": "",
          "type": "bool"
        }
      ],
      "stateMutability": "view",
      "type": "function"
    }
  ],
  "bytecode": "0x6101806040527fdd8f4b70b0f4393e889bd39128a30628a78b61816a9eb8199759e7a349657e486101605234801561003657600080fd5b50604080518082018252601081526f26b4b734b6b0b62337b93bb0b93232b960811b602080830191825283518085019094526005845264302e302e3160d81b908401528151902060e08190527fae209a0b48f21c054280f2455d32cf309387644879d9acbd8ffc1991638118856101008190524660a0529192917f8b73c3c69bb8fe3d512ecc4cf759cc79239f7b179b0ffacaa9a75d522b39400f6101208184846040805160208101859052908101839052606081018290524660808201523060a082015260009060c0016040516020818303038152906040528051906020012090509392505050565b6080523060c0526101205250507fab4f864e5201b0fde9b5ee3e4cf96384802b0ffdfcf7f9de4699ce21a30afc4f61014052506101609050600033610173565b6101405161016e9033610173565b610212565b6000828152602081815260408083206001600160a01b038516845290915290205460ff1661020e576000828152602081815260408083206001600160a01b03851684529091529020805460ff191660011790556101cd3390565b6001600160a01b0316816001600160a01b0316837f2f8788117e7eff1d82e926ec794901d17c78024a50270940304540a733656f0d60405160405180910390a45b5050565b60805160a05160c05160e051610100516101205161014051610160516111cc61027d60003960006105ae01526000818160e801526103430152600061095d015260006109ac01526000610987015260006108e00152600061090a0152600061093401526111cc6000f3fe60806040526004361061009c5760003560e01c806336568abe1161006457806336568abe146101a057806347153f82146101c057806391d14854146101e1578063a217fddf14610201578063bf5d3bdb14610216578063d547741f1461023657600080fd5b806301ffc9a7146100a15780632483e715146100d6578063248a9ca3146101185780632d0335ab146101485780632f2ff15d1461017e575b600080fd5b3480156100ad57600080fd5b506100c16100bc366004610e02565b610256565b60405190151581526020015b60405180910390f35b3480156100e257600080fd5b5061010a7f000000000000000000000000000000000000000000000000000000000000000081565b6040519081526020016100cd565b34801561012457600080fd5b5061010a610133366004610e2c565b60009081526020819052604090206001015490565b34801561015457600080fd5b5061010a610163366004610e61565b6001600160a01b031660009081526001602052604090205490565b34801561018a57600080fd5b5061019e610199366004610e7c565b61028d565b005b3480156101ac57600080fd5b5061019e6101bb366004610e7c565b6102b7565b6101d36101ce366004610ea8565b61033a565b6040516100cd929190610f97565b3480156101ed57600080fd5b506100c16101fc366004610e7c565b610545565b34801561020d57600080fd5b5061010a600081565b34801561022257600080fd5b506100c1610231366004610ea8565b61056e565b34801561024257600080fd5b5061019e610251366004610e7c565b6106ed565b60006001600160e01b03198216637965db0b60e01b148061028757506301ffc9a760e01b6001600160e01b03198316145b92915050565b6000828152602081905260409020600101546102a881610712565b6102b2838361071f565b505050565b6001600160a01b038116331461032c5760405162461bcd60e51b815260206004820152602f60248201527f416363657373436f6e74726f6c3a2063616e206f6e6c792072656e6f756e636560448201526e103937b632b9903337b91039b2b63360891b60648201526084015b60405180910390fd5b61033682826107a3565b5050565b600060606103687f000000000000000000000000000000000000000000000000000000000000000033610545565b6103b45760405162461bcd60e51b815260206004820152601e60248201527f4d696e696d616c466f727761726465723a204f6e6c792072656c6179657200006044820152606401610323565b6103bf85858561056e565b6104265760405162461bcd60e51b815260206004820152603260248201527f4d696e696d616c466f727761726465723a207369676e617475726520646f6573604482015271081b9bdd081b585d18da081c995c5d595cdd60721b6064820152608401610323565b61043560808601356001610fd0565b600160006104466020890189610e61565b6001600160a01b03166001600160a01b03168152602001908152602001600020819055506000808660200160208101906104809190610e61565b6001600160a01b0316606088013560408901356104a060a08b018b610fe3565b6104ad60208d018d610e61565b6040516020016104bf9392919061102a565b60408051601f19818403018152908290526104d991611050565b600060405180830381858888f193505050503d8060008114610517576040519150601f19603f3d011682016040523d82523d6000602084013e61051c565b606091505b509092509050610531603f606089013561106c565b5a1161053957fe5b90969095509350505050565b6000918252602082815260408084206001600160a01b0393909316845291905290205460ff1690565b60008061068184848080601f01602080910402602001604051908101604052809392919081815260200183838082843760009201919091525061067b92507f000000000000000000000000000000000000000000000000000000000000000091506105de905060208a018a610e61565b6105ee60408b0160208c01610e61565b60408b013560608c013560808d013561060a60a08f018f610fe3565b60405161061892919061108e565b6040805191829003822060208301989098526001600160a01b0396871690820152949093166060850152608084019190915260a083015260c082015260e08101919091526101000160405160208183030381529060405280519060200120610808565b90610856565b90506080850135600160006106996020890189610e61565b6001600160a01b03166001600160a01b03168152602001908152602001600020541480156106e457506106cf6020860186610e61565b6001600160a01b0316816001600160a01b0316145b95945050505050565b60008281526020819052604090206001015461070881610712565b6102b283836107a3565b61071c813361087a565b50565b6107298282610545565b610336576000828152602081815260408083206001600160a01b03851684529091529020805460ff1916600117905561075f3390565b6001600160a01b0316816001600160a01b0316837f2f8788117e7eff1d82e926ec794901d17c78024a50270940304540a733656f0d60405160405180910390a45050565b6107ad8282610545565b15610336576000828152602081815260408083206001600160a01b0385168085529252808320805460ff1916905551339285917ff6391f5c32d9c69d2a47ea670b442974b53935d1edc7fd64eb21e047a839171b9190a45050565b60006102876108156108d3565b8360405161190160f01b6020820152602281018390526042810182905260009060620160405160208183030381529060405280519060200120905092915050565b600080600061086585856109fa565b9150915061087281610a3f565b509392505050565b6108848282610545565b6103365761089181610b89565b61089c836020610b9b565b6040516020016108ad92919061109e565b60408051601f198184030181529082905262461bcd60e51b825261032391600401611113565b6000306001600160a01b037f00000000000000000000000000000000000000000000000000000000000000001614801561092c57507f000000000000000000000000000000000000000000000000000000000000000046145b1561095657507f000000000000000000000000000000000000000000000000000000000000000090565b50604080517f00000000000000000000000000000000000000000000000000000000000000006020808301919091527f0000000000000000000000000000000000000000000000000000000000000000828401527f000000000000000000000000000000000000000000000000000000000000000060608301524660808301523060a0808401919091528351808403909101815260c0909201909252805191012090565b6000808251604103610a305760208301516040840151606085015160001a610a2487828585610d3e565b94509450505050610a38565b506000905060025b9250929050565b6000816004811115610a5357610a53611126565b03610a5b5750565b6001816004811115610a6f57610a6f611126565b03610abc5760405162461bcd60e51b815260206004820152601860248201527f45434453413a20696e76616c6964207369676e617475726500000000000000006044820152606401610323565b6002816004811115610ad057610ad0611126565b03610b1d5760405162461bcd60e51b815260206004820152601f60248201527f45434453413a20696e76616c6964207369676e6174757265206c656e677468006044820152606401610323565b6003816004811115610b3157610b31611126565b0361071c5760405162461bcd60e51b815260206004820152602260248201527f45434453413a20696e76616c6964207369676e6174757265202773272076616c604482015261756560f01b6064820152608401610323565b60606102876001600160a01b03831660145b60606000610baa83600261113c565b610bb5906002610fd0565b67ffffffffffffffff811115610bcd57610bcd611153565b6040519080825280601f01601f191660200182016040528015610bf7576020820181803683370190505b509050600360fc1b81600081518110610c1257610c12611169565b60200101906001600160f81b031916908160001a905350600f60fb1b81600181518110610c4157610c41611169565b60200101906001600160f81b031916908160001a9053506000610c6584600261113c565b610c70906001610fd0565b90505b6001811115610ce8576f181899199a1a9b1b9c1cb0b131b232b360811b85600f1660108110610ca457610ca4611169565b1a60f81b828281518110610cba57610cba611169565b60200101906001600160f81b031916908160001a90535060049490941c93610ce18161117f565b9050610c73565b508315610d375760405162461bcd60e51b815260206004820181905260248201527f537472696e67733a20686578206c656e67746820696e73756666696369656e746044820152606401610323565b9392505050565b6000807f7fffffffffffffffffffffffffffffff5d576e7357a4501ddfe92f46681b20a0831115610d755750600090506003610df9565b6040805160008082526020820180845289905260ff881692820192909252606081018690526080810185905260019060a0016020604051602081039080840390855afa158015610dc9573d6000803e3d6000fd5b5050604051601f1901519150506001600160a01b038116610df257600060019250925050610df9565b9150600090505b94509492505050565b600060208284031215610e1457600080fd5b81356001600160e01b031981168114610d3757600080fd5b600060208284031215610e3e57600080fd5b5035919050565b80356001600160a01b0381168114610e5c57600080fd5b919050565b600060208284031215610e7357600080fd5b610d3782610e45565b60008060408385031215610e8f57600080fd5b82359150610e9f60208401610e45565b90509250929050565b600080600060408486031215610ebd57600080fd5b833567ffffffffffffffff80821115610ed557600080fd5b9085019060c08288031215610ee957600080fd5b90935060208501359080821115610eff57600080fd5b818601915086601f830112610f1357600080fd5b813581811115610f2257600080fd5b876020828501011115610f3457600080fd5b6020830194508093505050509250925092565b60005b83811015610f62578181015183820152602001610f4a565b50506000910152565b60008151808452610f83816020860160208601610f47565b601f01601f19169290920160200192915050565b8215158152604060208201526000610fb26040830184610f6b565b949350505050565b634e487b7160e01b600052601160045260246000fd5b8082018082111561028757610287610fba565b6000808335601e19843603018112610ffa57600080fd5b83018035915067ffffffffffffffff82111561101557600080fd5b602001915036819003821315610a3857600080fd5b8284823760609190911b6bffffffffffffffffffffffff19169101908152601401919050565b60008251611062818460208701610f47565b9190910192915050565b60008261108957634e487b7160e01b600052601260045260246000fd5b500490565b8183823760009101908152919050565b7f416363657373436f6e74726f6c3a206163636f756e74200000000000000000008152600083516110d6816017850160208801610f47565b7001034b99036b4b9b9b4b733903937b6329607d1b6017918401918201528351611107816028840160208801610f47565b01602801949350505050565b602081526000610d376020830184610f6b565b634e487b7160e01b600052602160045260246000fd5b808202811582820484141761028757610287610fba565b634e487b7160e01b600052604160045260246000fd5b634e487b7160e01b600052603260045260246000fd5b60008161118e5761118e610fba565b50600019019056fea264697066735822122059133144cba42353e38254205d66268db5e8c0f82e8353f2db23b41fc388a4ac64736f6c63430008110033",
  "linkReferences": {},
  "deployedLinkReferences": {}
}