{
  "_format": "hh-sol-artifact-1",
  "contractName": "Users",
  "sourceName": "contracts/users.sol",
  "abi": [
    {
      "inputs": [
        {
          "internalType": "address",
          "name": "_forwarder",
          "type": "address"
        }
      ],
      "stateMutability": "nonpayable",
      "type": "constructor"
    },
    {
      "anonymous": false,
      "inputs": [
        {
          "indexed": true,
          "internalType": "bytes32",
          "name": "role",
          "type": "bytes32"
        },
        {
          "indexed": true,
          "internalType": "bytes32",
          "name": "previousAdminRole",
          "type": "bytes32"
        },
        {
          "indexed": true,
          "internalType": "bytes32",
          "name": "newAdminRole",
          "type": "bytes32"
        }
      ],
      "name": "RoleAdminChanged",
      "type": "event"
    },
    {
      "anonymous": false,
      "inputs": [
        {
          "indexed": true,
          "internalType": "bytes32",
          "name": "role",
          "type": "bytes32"
        },
        {
          "indexed": true,
          "internalType": "address",
          "name": "account",
          "type": "address"
        },
        {
          "indexed": true,
          "internalType": "address",
          "name": "sender",
          "type": "address"
        }
      ],
      "name": "RoleGranted",
      "type": "event"
    },
    {
      "anonymous": false,
      "inputs": [
        {
          "indexed": true,
          "internalType": "bytes32",
          "name": "role",
          "type": "bytes32"
        },
        {
          "indexed": true,
          "internalType": "address",
          "name": "account",
          "type": "address"
        },
        {
          "indexed": true,
          "internalType": "address",
          "name": "sender",
          "type": "address"
        }
      ],
      "name": "RoleRevoked",
      "type": "event"
    },
    {
      "inputs": [],
      "name": "DEFAULT_ADMIN_ROLE",
      "outputs": [
        {
          "internalType": "bytes32",
          "name": "",
          "type": "bytes32"
        }
      ],
      "stateMutability": "view",
      "type": "function"
    },
    {
      "inputs": [
        {
          "internalType": "string",
          "name": "_email",
          "type": "string"
        },
        {
          "internalType": "string",
          "name": "_password",
          "type": "string"
        },
        {
          "internalType": "address",
          "name": "_wallet",
          "type": "address"
        }
      ],
      "name": "createUser",
      "outputs": [],
      "stateMutability": "nonpayable",
      "type": "function"
    },
    {
      "inputs": [
        {
          "internalType": "bytes32",
          "name": "role",
          "type": "bytes32"
        }
      ],
      "name": "getRoleAdmin",
      "outputs": [
        {
          "internalType": "bytes32",
          "name": "",
          "type": "bytes32"
        }
      ],
      "stateMutability": "view",
      "type": "function"
    },
    {
      "inputs": [
        {
          "internalType": "string",
          "name": "_email",
          "type": "string"
        }
      ],
      "name": "getUser",
      "outputs": [
        {
          "internalType": "string",
          "name": "email",
          "type": "string"
        },
        {
          "internalType": "string",
          "name": "password",
          "type": "string"
        },
        {
          "internalType": "address",
          "name": "wallet",
          "type": "address"
        }
      ],
      "stateMutability": "view",
      "type": "function"
    },
    {
      "inputs": [
        {
          "internalType": "bytes32",
          "name": "role",
          "type": "bytes32"
        },
        {
          "internalType": "address",
          "name": "account",
          "type": "address"
        }
      ],
      "name": "grantRole",
      "outputs": [],
      "stateMutability": "nonpayable",
      "type": "function"
    },
    {
      "inputs": [
        {
          "internalType": "bytes32",
          "name": "role",
          "type": "bytes32"
        },
        {
          "internalType": "address",
          "name": "account",
          "type": "address"
        }
      ],
      "name": "hasRole",
      "outputs": [
        {
          "internalType": "bool",
          "name": "",
          "type": "bool"
        }
      ],
      "stateMutability": "view",
      "type": "function"
    },
    {
      "inputs": [
        {
          "internalType": "address",
          "name": "forwarder",
          "type": "address"
        }
      ],
      "name": "isTrustedForwarder",
      "outputs": [
        {
          "internalType": "bool",
          "name": "",
          "type": "bool"
        }
      ],
      "stateMutability": "view",
      "type": "function"
    },
    {
      "inputs": [
        {
          "internalType": "string",
          "name": "_email",
          "type": "string"
        }
      ],
      "name": "isUserExist",
      "outputs": [
        {
          "internalType": "bool",
          "name": "",
          "type": "bool"
        }
      ],
      "stateMutability": "view",
      "type": "function"
    },
    {
      "inputs": [
        {
          "internalType": "bytes32",
          "name": "role",
          "type": "bytes32"
        },
        {
          "internalType": "address",
          "name": "account",
          "type": "address"
        }
      ],
      "name": "renounceRole",
      "outputs": [],
      "stateMutability": "nonpayable",
      "type": "function"
    },
    {
      "inputs": [
        {
          "internalType": "bytes32",
          "name": "role",
          "type": "bytes32"
        },
        {
          "internalType": "address",
          "name": "account",
          "type": "address"
        }
      ],
      "name": "revokeRole",
      "outputs": [],
      "stateMutability": "nonpayable",
      "type": "function"
    },
    {
      "inputs": [
        {
          "internalType": "bytes4",
          "name": "interfaceId",
          "type": "bytes4"
        }
      ],
      "name": "supportsInterface",
      "outputs": [
        {
          "internalType": "bool",
          "name": "",
          "type": "bool"
        }
      ],
      "stateMutability": "view",
      "type": "function"
    },
    {
      "inputs": [
        {
          "internalType": "string",
          "name": "",
          "type": "string"
        }
      ],
      "name": "userExists",
      "outputs": [
        {
          "internalType": "bool",
          "name": "",
          "type": "bool"
        }
      ],
      "stateMutability": "view",
      "type": "function"
    },
    {
      "inputs": [
        {
          "internalType": "address",
          "name": "",
          "type": "address"
        }
      ],
      "name": "walletEmails",
      "outputs": [
        {
          "internalType": "string",
          "name": "",
          "type": "string"
        }
      ],
      "stateMutability": "view",
      "type": "function"
    }
  ],
  "bytecode": "0x60a06040523480156200001157600080fd5b506040516200127138038062001271833981016040819052620000349162000159565b6001600160a01b038116608052620000576000620000516200005e565b6200007a565b506200018b565b6000620000756200011d60201b620008541760201c565b905090565b6000828152602081815260408083206001600160a01b038516845290915290205460ff1662000119576000828152602081815260408083206001600160a01b03851684529091529020805460ff19166001179055620000d86200005e565b6001600160a01b0316816001600160a01b0316837f2f8788117e7eff1d82e926ec794901d17c78024a50270940304540a733656f0d60405160405180910390a45b5050565b6080516000906001600160a01b0316330362000140575060131936013560601c90565b620000756200015560201b6200087b1760201c565b3390565b6000602082840312156200016c57600080fd5b81516001600160a01b03811681146200018457600080fd5b9392505050565b6080516110ca620001a7600039600061051801526110ca6000f3fe608060405234801561001057600080fd5b50600436106100cf5760003560e01c806372a445021161008c578063a217fddf11610066578063a217fddf146101d0578063b5ca2541146101d8578063d547741f146101eb578063fddc968e146101fe57600080fd5b806372a445021461018a57806387eb60e5146101aa57806391d14854146101bd57600080fd5b806301ffc9a7146100d4578063248a9ca3146100fc5780632f2ff15d1461012d57806331feb6711461014257806336568abe14610164578063572b6c0514610177575b600080fd5b6100e76100e2366004610bb3565b61022c565b60405190151581526020015b60405180910390f35b61011f61010a366004610bdd565b60009081526020819052604090206001015490565b6040519081526020016100f3565b61014061013b366004610c12565b610263565b005b610155610150366004610ce1565b61028d565b6040516100f393929190610d6e565b610140610172366004610c12565b610488565b6100e7610185366004610dac565b610516565b61019d610198366004610dac565b610548565b6040516100f39190610dc7565b6100e76101b8366004610ce1565b6105e2565b6100e76101cb366004610c12565b61060d565b61011f600081565b6101406101e6366004610dda565b610636565b6101406101f9366004610c12565b61082f565b6100e761020c366004610ce1565b805160208183018101805160038252928201919093012091525460ff1681565b60006001600160e01b03198216637965db0b60e01b148061025d57506301ffc9a760e01b6001600160e01b03198316145b92915050565b60008281526020819052604090206001015461027e8161087f565b6102888383610893565b505050565b60608060006003846040516102a29190610e4e565b9081526040519081900360200190205460ff166103065760405162461bcd60e51b815260206004820152601860248201527f55533a207573657220646f6573206e6f7420657869737473000000000000000060448201526064015b60405180910390fd5b60006001856040516103189190610e4e565b908152602001604051809103902060405180606001604052908160008201805461034190610e6a565b80601f016020809104026020016040519081016040528092919081815260200182805461036d90610e6a565b80156103ba5780601f1061038f576101008083540402835291602001916103ba565b820191906000526020600020905b81548152906001019060200180831161039d57829003601f168201915b505050918352505060018201546001600160a01b031660208201526002820180546040909201916103ea90610e6a565b80601f016020809104026020016040519081016040528092919081815260200182805461041690610e6a565b80156104635780601f1061043857610100808354040283529160200191610463565b820191906000526020600020905b81548152906001019060200180831161044657829003601f168201915b5050509190925250508151604083015160209093015190989297509550909350505050565b610490610918565b6001600160a01b0316816001600160a01b0316146105085760405162461bcd60e51b815260206004820152602f60248201527f416363657373436f6e74726f6c3a2063616e206f6e6c792072656e6f756e636560448201526e103937b632b9903337b91039b2b63360891b60648201526084016102fd565b6105128282610922565b5050565b7f00000000000000000000000000000000000000000000000000000000000000006001600160a01b0390811691161490565b6002602052600090815260409020805461056190610e6a565b80601f016020809104026020016040519081016040528092919081815260200182805461058d90610e6a565b80156105da5780601f106105af576101008083540402835291602001916105da565b820191906000526020600020905b8154815290600101906020018083116105bd57829003601f168201915b505050505081565b60006003826040516105f49190610e4e565b9081526040519081900360200190205460ff1692915050565b6000918252602082815260408084206001600160a01b0393909316845291905290205460ff1690565b61063f33610516565b61068b5760405162461bcd60e51b815260206004820152601a60248201527f55533a204f6e6c79205472757374656420466f7277617264657200000000000060448201526064016102fd565b61069860006101cb610918565b6106d65760405162461bcd60e51b815260206004820152600f60248201526e02aa99d1027b7363c9020b236b4b71608d1b60448201526064016102fd565b6003836040516106e69190610e4e565b9081526040519081900360200190205460ff16156107465760405162461bcd60e51b815260206004820152601760248201527f55533a207573657220616c72656164792065786973747300000000000000000060448201526064016102fd565b6040518060600160405280848152602001826001600160a01b031681526020018381525060018460405161077a9190610e4e565b908152604051908190036020019020815181906107979082610ef2565b5060208201516001820180546001600160a01b0319166001600160a01b03909216919091179055604082015160028201906107d29082610ef2565b5050506001600160a01b03811660009081526002602052604090206107f78482610ef2565b50600160038460405161080a9190610e4e565b908152604051908190036020019020805491151560ff19909216919091179055505050565b60008281526020819052604090206001015461084a8161087f565b6102888383610922565b600061085f33610516565b15610871575060131936013560601c90565b503390565b905090565b3390565b6108908161088b610918565b6109a5565b50565b61089d828261060d565b610512576000828152602081815260408083206001600160a01b03851684529091529020805460ff191660011790556108d4610918565b6001600160a01b0316816001600160a01b0316837f2f8788117e7eff1d82e926ec794901d17c78024a50270940304540a733656f0d60405160405180910390a45050565b6000610876610854565b61092c828261060d565b15610512576000828152602081815260408083206001600160a01b03851684529091529020805460ff19169055610961610918565b6001600160a01b0316816001600160a01b0316837ff6391f5c32d9c69d2a47ea670b442974b53935d1edc7fd64eb21e047a839171b60405160405180910390a45050565b6109af828261060d565b610512576109bc816109fe565b6109c7836020610a10565b6040516020016109d8929190610fb2565b60408051601f198184030181529082905262461bcd60e51b82526102fd91600401610dc7565b606061025d6001600160a01b03831660145b60606000610a1f83600261103d565b610a2a906002611054565b67ffffffffffffffff811115610a4257610a42610c3e565b6040519080825280601f01601f191660200182016040528015610a6c576020820181803683370190505b509050600360fc1b81600081518110610a8757610a87611067565b60200101906001600160f81b031916908160001a905350600f60fb1b81600181518110610ab657610ab6611067565b60200101906001600160f81b031916908160001a9053506000610ada84600261103d565b610ae5906001611054565b90505b6001811115610b5d576f181899199a1a9b1b9c1cb0b131b232b360811b85600f1660108110610b1957610b19611067565b1a60f81b828281518110610b2f57610b2f611067565b60200101906001600160f81b031916908160001a90535060049490941c93610b568161107d565b9050610ae8565b508315610bac5760405162461bcd60e51b815260206004820181905260248201527f537472696e67733a20686578206c656e67746820696e73756666696369656e7460448201526064016102fd565b9392505050565b600060208284031215610bc557600080fd5b81356001600160e01b031981168114610bac57600080fd5b600060208284031215610bef57600080fd5b5035919050565b80356001600160a01b0381168114610c0d57600080fd5b919050565b60008060408385031215610c2557600080fd5b82359150610c3560208401610bf6565b90509250929050565b634e487b7160e01b600052604160045260246000fd5b600082601f830112610c6557600080fd5b813567ffffffffffffffff80821115610c8057610c80610c3e565b604051601f8301601f19908116603f01168101908282118183101715610ca857610ca8610c3e565b81604052838152866020858801011115610cc157600080fd5b836020870160208301376000602085830101528094505050505092915050565b600060208284031215610cf357600080fd5b813567ffffffffffffffff811115610d0a57600080fd5b610d1684828501610c54565b949350505050565b60005b83811015610d39578181015183820152602001610d21565b50506000910152565b60008151808452610d5a816020860160208601610d1e565b601f01601f19169290920160200192915050565b606081526000610d816060830186610d42565b8281036020840152610d938186610d42565b91505060018060a01b0383166040830152949350505050565b600060208284031215610dbe57600080fd5b610bac82610bf6565b602081526000610bac6020830184610d42565b600080600060608486031215610def57600080fd5b833567ffffffffffffffff80821115610e0757600080fd5b610e1387838801610c54565b94506020860135915080821115610e2957600080fd5b50610e3686828701610c54565b925050610e4560408501610bf6565b90509250925092565b60008251610e60818460208701610d1e565b9190910192915050565b600181811c90821680610e7e57607f821691505b602082108103610e9e57634e487b7160e01b600052602260045260246000fd5b50919050565b601f82111561028857600081815260208120601f850160051c81016020861015610ecb5750805b601f850160051c820191505b81811015610eea57828155600101610ed7565b505050505050565b815167ffffffffffffffff811115610f0c57610f0c610c3e565b610f2081610f1a8454610e6a565b84610ea4565b602080601f831160018114610f555760008415610f3d5750858301515b600019600386901b1c1916600185901b178555610eea565b600085815260208120601f198616915b82811015610f8457888601518255948401946001909101908401610f65565b5085821015610fa25787850151600019600388901b60f8161c191681555b5050505050600190811b01905550565b7f416363657373436f6e74726f6c3a206163636f756e7420000000000000000000815260008351610fea816017850160208801610d1e565b7001034b99036b4b9b9b4b733903937b6329607d1b601791840191820152835161101b816028840160208801610d1e565b01602801949350505050565b634e487b7160e01b600052601160045260246000fd5b808202811582820484141761025d5761025d611027565b8082018082111561025d5761025d611027565b634e487b7160e01b600052603260045260246000fd5b60008161108c5761108c611027565b50600019019056fea264697066735822122073b1a195a8df10bcb8917ab1711b96d3ec5271526b3599eda20270b564d7ce3a64736f6c63430008110033",
  "linkReferences": {},
  "deployedLinkReferences": {}
}